{
  "contractName": "SolvineProxy",
  "abi": [
    {
      "inputs": [
        {
          "internalType": "address",
          "name": "_implementation",
          "type": "address"
        },
        {
          "internalType": "address",
          "name": "_admin",
          "type": "address"
        }
      ],
      "stateMutability": "nonpayable",
      "type": "constructor"
    },
    {
      "inputs": [],
      "name": "admin",
      "outputs": [
        {
          "internalType": "address",
          "name": "",
          "type": "address"
        }
      ],
      "stateMutability": "view",
      "type": "function"
    },
    {
      "inputs": [],
      "name": "implementation",
      "outputs": [
        {
          "internalType": "address",
          "name": "",
          "type": "address"
        }
      ],
      "stateMutability": "view",
      "type": "function"
    },
    {
      "inputs": [
        {
          "internalType": "uint256",
          "name": "initialSupply",
          "type": "uint256"
        },
        {
          "internalType": "uint256",
          "name": "maxSupply",
          "type": "uint256"
        }
      ],
      "name": "deploy",
      "outputs": [
        {
          "internalType": "address",
          "name": "",
          "type": "address"
        }
      ],
      "stateMutability": "nonpayable",
      "type": "function"
    }
  ],
  "bytecode": "0x60c060405234801561000f575f80fd5b506040516106c53803806106c583398101604081905261002e91610060565b6001600160a01b039182166080521660a052610091565b80516001600160a01b038116811461005b575f80fd5b919050565b5f8060408385031215610071575f80fd5b61007a83610045565b915061008860208401610045565b90509250929050565b60805160a05161060f6100b65f395f609e01525f81816048015260c4015261060f5ff3fe608060405234801561000f575f80fd5b506004361061003f575f3560e01c80635c60da1b146100435780635e79bb6014610086578063f851a44014610099575b5f80fd5b61006a7f000000000000000000000000000000000000000000000000000000000000000081565b6040516001600160a01b03909116815260200160405180910390f35b61006a61009436600461016d565b6100c0565b61006a7f000000000000000000000000000000000000000000000000000000000000000081565b5f807f000000000000000000000000000000000000000000000000000000000000000084846040516024016100ff929190918252602082015260400190565b60408051601f198184030181529181526020820180516001600160e01b0316637251808b60e11b1790525161013390610160565b61013e92919061018d565b604051809103905ff080158015610157573d5f803e3d5ffd5b50949350505050565b6103f0806101ea83390190565b5f806040838503121561017e575f80fd5b50508035926020909101359150565b60018060a01b03831681525f60206040602084015283518060408501525f5b818110156101c8578581018301518582016060015282016101ac565b505f606082860101526060601f19601f83011685010192505050939250505056fe60806040526040516103f03803806103f08339810160408190526100229161025e565b61002c8282610033565b5050610341565b61003c82610091565b6040516001600160a01b038316907fbc7cd75a20ee27fd9adebab32041f755214dbc6bffa90cc0225b39da2e5c2d3b905f90a280511561008557610080828261010c565b505050565b61008d61017f565b5050565b806001600160a01b03163b5f036100cb57604051634c9c8ce360e01b81526001600160a01b03821660048201526024015b60405180910390fd5b7f360894a13ba1a3210667c828492db98dca3e2076cc3735a920a3ca505d382bbc80546001600160a01b0319166001600160a01b0392909216919091179055565b60605f80846001600160a01b0316846040516101289190610326565b5f60405180830381855af49150503d805f8114610160576040519150601f19603f3d011682016040523d82523d5f602084013e610165565b606091505b5090925090506101768583836101a0565b95945050505050565b341561019e5760405163b398979f60e01b815260040160405180910390fd5b565b6060826101b5576101b0826101ff565b6101f8565b81511580156101cc57506001600160a01b0384163b155b156101f557604051639996b31560e01b81526001600160a01b03851660048201526024016100c2565b50805b9392505050565b80511561020f5780518082602001fd5b604051630a12f52160e11b815260040160405180910390fd5b634e487b7160e01b5f52604160045260245ffd5b5f5b8381101561025657818101518382015260200161023e565b50505f910152565b5f806040838503121561026f575f80fd5b82516001600160a01b0381168114610285575f80fd5b60208401519092506001600160401b03808211156102a1575f80fd5b818501915085601f8301126102b4575f80fd5b8151818111156102c6576102c6610228565b604051601f8201601f19908116603f011681019083821181831017156102ee576102ee610228565b81604052828152886020848701011115610306575f80fd5b61031783602083016020880161023c565b80955050505050509250929050565b5f825161033781846020870161023c565b9190910192915050565b60a38061034d5f395ff3fe6080604052600a600c565b005b60186014601a565b6050565b565b5f604b7f360894a13ba1a3210667c828492db98dca3e2076cc3735a920a3ca505d382bbc546001600160a01b031690565b905090565b365f80375f80365f845af43d5f803e8080156069573d5ff35b3d5ffdfea26469706673582212203b4bb5e0fd57d8893d3f24c78de2c21e5b5967bf9075bf3cdc52bc2171b2f4a164736f6c63430008180033a2646970667358221220e07c3b7176ded00c5cb5acedfc93e6625df550778fc5472b10c0eb26975ab5e764736f6c63430008180033",
  "immutableReferences": {
    "754": [
      {
        "length": 32,
        "start": 72
      },
      {
        "length": 32,
        "start": 196
      }
    ],
    "756": [
      {
        "length": 32,
        "start": 158
      }
    ]
  },
  "source": "// SPDX-License-Identifier: MIT\r\npragma solidity ^0.8.0;\r\n\r\nimport \"@openzeppelin/contracts/proxy/ERC1967/ERC1967Proxy.sol\";\r\n\r\ncontract SolvineProxy {\r\n    address public immutable implementation;\r\n    address public immutable admin;\r\n\r\n    constructor(address _implementation, address _admin) {\r\n        implementation = _implementation;\r\n        admin = _admin;\r\n    }\r\n\r\n    function deploy(uint256 initialSupply, uint256 maxSupply) external returns (address) {\r\n        address proxyAddress = address(new ERC1967Proxy(implementation, abi.encodeWithSignature(\"initialize(uint256,uint256)\", initialSupply, maxSupply)));\r\n        return proxyAddress;\r\n    }\r\n}\r\n",
  "sourcePath": "E:\\Project\\Crypto Research\\Polygon Testnet\\contracts\\solvine.sol",
  "compiler": {
    "name": "solc",
    "version": "0.8.24+commit.e11b9ed9.Emscripten.clang"
  },
  "schemaVersion": "3.4.16",
  "updatedAt": "2024-03-04T04:37:35.953Z",
  "devdoc": {
    "kind": "dev",
    "methods": {},
    "version": 1
  },
  "userdoc": {
    "kind": "user",
    "methods": {},
    "version": 1
  }
}