{
  "contractName": "Solvine",
  "abi": [
    {
      "inputs": [
        {
          "internalType": "uint256",
          "name": "initialSupply",
          "type": "uint256"
        },
        {
          "internalType": "uint256",
          "name": "maxSupply",
          "type": "uint256"
        }
      ],
      "stateMutability": "nonpayable",
      "type": "constructor"
    },
    {
      "inputs": [
        {
          "internalType": "address",
          "name": "spender",
          "type": "address"
        },
        {
          "internalType": "uint256",
          "name": "allowance",
          "type": "uint256"
        },
        {
          "internalType": "uint256",
          "name": "needed",
          "type": "uint256"
        }
      ],
      "name": "ERC20InsufficientAllowance",
      "type": "error"
    },
    {
      "inputs": [
        {
          "internalType": "address",
          "name": "sender",
          "type": "address"
        },
        {
          "internalType": "uint256",
          "name": "balance",
          "type": "uint256"
        },
        {
          "internalType": "uint256",
          "name": "needed",
          "type": "uint256"
        }
      ],
      "name": "ERC20InsufficientBalance",
      "type": "error"
    },
    {
      "inputs": [
        {
          "internalType": "address",
          "name": "approver",
          "type": "address"
        }
      ],
      "name": "ERC20InvalidApprover",
      "type": "error"
    },
    {
      "inputs": [
        {
          "internalType": "address",
          "name": "receiver",
          "type": "address"
        }
      ],
      "name": "ERC20InvalidReceiver",
      "type": "error"
    },
    {
      "inputs": [
        {
          "internalType": "address",
          "name": "sender",
          "type": "address"
        }
      ],
      "name": "ERC20InvalidSender",
      "type": "error"
    },
    {
      "inputs": [
        {
          "internalType": "address",
          "name": "spender",
          "type": "address"
        }
      ],
      "name": "ERC20InvalidSpender",
      "type": "error"
    },
    {
      "inputs": [
        {
          "internalType": "address",
          "name": "owner",
          "type": "address"
        }
      ],
      "name": "OwnableInvalidOwner",
      "type": "error"
    },
    {
      "inputs": [
        {
          "internalType": "address",
          "name": "account",
          "type": "address"
        }
      ],
      "name": "OwnableUnauthorizedAccount",
      "type": "error"
    },
    {
      "anonymous": false,
      "inputs": [
        {
          "indexed": true,
          "internalType": "address",
          "name": "owner",
          "type": "address"
        },
        {
          "indexed": true,
          "internalType": "address",
          "name": "spender",
          "type": "address"
        },
        {
          "indexed": false,
          "internalType": "uint256",
          "name": "value",
          "type": "uint256"
        }
      ],
      "name": "Approval",
      "type": "event"
    },
    {
      "anonymous": false,
      "inputs": [
        {
          "indexed": false,
          "internalType": "uint256",
          "name": "newMaxSupply",
          "type": "uint256"
        }
      ],
      "name": "MaxSupplyChanged",
      "type": "event"
    },
    {
      "anonymous": false,
      "inputs": [
        {
          "indexed": true,
          "internalType": "address",
          "name": "previousOwner",
          "type": "address"
        },
        {
          "indexed": true,
          "internalType": "address",
          "name": "newOwner",
          "type": "address"
        }
      ],
      "name": "OwnershipTransferred",
      "type": "event"
    },
    {
      "anonymous": false,
      "inputs": [
        {
          "indexed": true,
          "internalType": "address",
          "name": "from",
          "type": "address"
        },
        {
          "indexed": true,
          "internalType": "address",
          "name": "to",
          "type": "address"
        },
        {
          "indexed": false,
          "internalType": "uint256",
          "name": "value",
          "type": "uint256"
        }
      ],
      "name": "Transfer",
      "type": "event"
    },
    {
      "anonymous": false,
      "inputs": [
        {
          "indexed": true,
          "internalType": "address",
          "name": "account",
          "type": "address"
        },
        {
          "indexed": false,
          "internalType": "bool",
          "name": "isWhitelisted",
          "type": "bool"
        }
      ],
      "name": "WhitelistUpdated",
      "type": "event"
    },
    {
      "inputs": [
        {
          "internalType": "address",
          "name": "owner",
          "type": "address"
        },
        {
          "internalType": "address",
          "name": "spender",
          "type": "address"
        }
      ],
      "name": "allowance",
      "outputs": [
        {
          "internalType": "uint256",
          "name": "",
          "type": "uint256"
        }
      ],
      "stateMutability": "view",
      "type": "function"
    },
    {
      "inputs": [
        {
          "internalType": "address",
          "name": "spender",
          "type": "address"
        },
        {
          "internalType": "uint256",
          "name": "value",
          "type": "uint256"
        }
      ],
      "name": "approve",
      "outputs": [
        {
          "internalType": "bool",
          "name": "",
          "type": "bool"
        }
      ],
      "stateMutability": "nonpayable",
      "type": "function"
    },
    {
      "inputs": [
        {
          "internalType": "address",
          "name": "account",
          "type": "address"
        }
      ],
      "name": "balanceOf",
      "outputs": [
        {
          "internalType": "uint256",
          "name": "",
          "type": "uint256"
        }
      ],
      "stateMutability": "view",
      "type": "function"
    },
    {
      "inputs": [],
      "name": "decimals",
      "outputs": [
        {
          "internalType": "uint8",
          "name": "",
          "type": "uint8"
        }
      ],
      "stateMutability": "view",
      "type": "function"
    },
    {
      "inputs": [],
      "name": "name",
      "outputs": [
        {
          "internalType": "string",
          "name": "",
          "type": "string"
        }
      ],
      "stateMutability": "view",
      "type": "function"
    },
    {
      "inputs": [],
      "name": "owner",
      "outputs": [
        {
          "internalType": "address",
          "name": "",
          "type": "address"
        }
      ],
      "stateMutability": "view",
      "type": "function"
    },
    {
      "inputs": [],
      "name": "renounceOwnership",
      "outputs": [],
      "stateMutability": "nonpayable",
      "type": "function"
    },
    {
      "inputs": [],
      "name": "symbol",
      "outputs": [
        {
          "internalType": "string",
          "name": "",
          "type": "string"
        }
      ],
      "stateMutability": "view",
      "type": "function"
    },
    {
      "inputs": [],
      "name": "totalSupply",
      "outputs": [
        {
          "internalType": "uint256",
          "name": "",
          "type": "uint256"
        }
      ],
      "stateMutability": "view",
      "type": "function"
    },
    {
      "inputs": [
        {
          "internalType": "address",
          "name": "newOwner",
          "type": "address"
        }
      ],
      "name": "transferOwnership",
      "outputs": [],
      "stateMutability": "nonpayable",
      "type": "function"
    },
    {
      "inputs": [
        {
          "internalType": "address",
          "name": "to",
          "type": "address"
        },
        {
          "internalType": "uint256",
          "name": "amount",
          "type": "uint256"
        }
      ],
      "name": "mint",
      "outputs": [],
      "stateMutability": "nonpayable",
      "type": "function"
    },
    {
      "inputs": [
        {
          "internalType": "uint256",
          "name": "amount",
          "type": "uint256"
        }
      ],
      "name": "burn",
      "outputs": [],
      "stateMutability": "nonpayable",
      "type": "function"
    },
    {
      "inputs": [
        {
          "internalType": "uint256",
          "name": "newMaxSupply",
          "type": "uint256"
        }
      ],
      "name": "updateMaxSupply",
      "outputs": [],
      "stateMutability": "nonpayable",
      "type": "function"
    },
    {
      "inputs": [
        {
          "internalType": "address",
          "name": "account",
          "type": "address"
        }
      ],
      "name": "addToWhitelist",
      "outputs": [],
      "stateMutability": "nonpayable",
      "type": "function"
    },
    {
      "inputs": [
        {
          "internalType": "address",
          "name": "account",
          "type": "address"
        }
      ],
      "name": "removeFromWhitelist",
      "outputs": [],
      "stateMutability": "nonpayable",
      "type": "function"
    },
    {
      "inputs": [
        {
          "internalType": "address",
          "name": "account",
          "type": "address"
        }
      ],
      "name": "isWhitelisted",
      "outputs": [
        {
          "internalType": "bool",
          "name": "",
          "type": "bool"
        }
      ],
      "stateMutability": "view",
      "type": "function"
    },
    {
      "inputs": [
        {
          "internalType": "address",
          "name": "recipient",
          "type": "address"
        },
        {
          "internalType": "uint256",
          "name": "amount",
          "type": "uint256"
        }
      ],
      "name": "transfer",
      "outputs": [
        {
          "internalType": "bool",
          "name": "",
          "type": "bool"
        }
      ],
      "stateMutability": "nonpayable",
      "type": "function"
    },
    {
      "inputs": [
        {
          "internalType": "address",
          "name": "sender",
          "type": "address"
        },
        {
          "internalType": "address",
          "name": "recipient",
          "type": "address"
        },
        {
          "internalType": "uint256",
          "name": "amount",
          "type": "uint256"
        }
      ],
      "name": "transferFrom",
      "outputs": [
        {
          "internalType": "bool",
          "name": "",
          "type": "bool"
        }
      ],
      "stateMutability": "nonpayable",
      "type": "function"
    }
  ],
  "bytecode": "0x608060405234801562000010575f80fd5b50604051620010e4380380620010e48339810160408190526200003391620002a3565b3360405180604001604052806007815260200166534f4c56494e4560c81b8152506040518060400160405280600381526020016229a62b60e91b815250816003908162000081919062000364565b50600462000090828262000364565b5050506001600160a01b038116620000c257604051631e4fbdf760e01b81525f60048201526024015b60405180910390fd5b620000cd81620000e7565b506006819055620000df338362000138565b505062000456565b600580546001600160a01b038381166001600160a01b0319831681179093556040519116919082907f8be0079c531659141344cd1fd0a4f28419497f9722a3daafe3b4186f6b6457e0905f90a35050565b6001600160a01b038216620001635760405163ec442f0560e01b81525f6004820152602401620000b9565b620001705f838362000174565b5050565b6001600160a01b038316620001a2578060025f82825462000196919062000430565b90915550620002149050565b6001600160a01b0383165f9081526020819052604090205481811015620001f65760405163391434e360e21b81526001600160a01b03851660048201526024810182905260448101839052606401620000b9565b6001600160a01b0384165f9081526020819052604090209082900390555b6001600160a01b038216620002325760028054829003905562000250565b6001600160a01b0382165f9081526020819052604090208054820190555b816001600160a01b0316836001600160a01b03167fddf252ad1be2c89b69c2b068fc378daa952ba7f163c4a11628f55a4df523b3ef836040516200029691815260200190565b60405180910390a3505050565b5f8060408385031215620002b5575f80fd5b505080516020909101519092909150565b634e487b7160e01b5f52604160045260245ffd5b600181811c90821680620002ef57607f821691505b6020821081036200030e57634e487b7160e01b5f52602260045260245ffd5b50919050565b601f8211156200035f57805f5260205f20601f840160051c810160208510156200033b5750805b601f840160051c820191505b818110156200035c575f815560010162000347565b50505b505050565b81516001600160401b03811115620003805762000380620002c6565b6200039881620003918454620002da565b8462000314565b602080601f831160018114620003ce575f8415620003b65750858301515b5f19600386901b1c1916600185901b17855562000428565b5f85815260208120601f198616915b82811015620003fe57888601518255948401946001909101908401620003dd565b50858210156200041c57878501515f19600388901b60f8161c191681555b505060018460011b0185555b505050505050565b808201808211156200045057634e487b7160e01b5f52601160045260245ffd5b92915050565b610c8080620004645f395ff3fe608060405234801561000f575f80fd5b5060043610610111575f3560e01c8063715018a61161009e578063a9059cbb1161006e578063a9059cbb14610243578063dd62ed3e14610256578063e43252d71461028e578063f103b433146102a1578063f2fde38b146102b4575f80fd5b8063715018a6146102055780638ab1d6811461020d5780638da5cb5b1461022057806395d89b411461023b575f80fd5b8063313ce567116100e4578063313ce5671461017b5780633af32abf1461018a57806340c10f19146101b557806342966c68146101ca57806370a08231146101dd575f80fd5b806306fdde0314610115578063095ea7b31461013357806318160ddd1461015657806323b872dd14610168575b5f80fd5b61011d6102c7565b60405161012a9190610a84565b60405180910390f35b610146610141366004610aeb565b610357565b604051901515815260200161012a565b6002545b60405190815260200161012a565b610146610176366004610b13565b610370565b6040516012815260200161012a565b610146610198366004610b4c565b6001600160a01b03165f9081526007602052604090205460ff1690565b6101c86101c3366004610aeb565b6103e5565b005b6101c86101d8366004610b65565b610455565b61015a6101eb366004610b4c565b6001600160a01b03165f9081526020819052604090205490565b6101c8610462565b6101c861021b366004610b4c565b610475565b6005546040516001600160a01b03909116815260200161012a565b61011d6104d2565b610146610251366004610aeb565b6104e1565b61015a610264366004610b7c565b6001600160a01b039182165f90815260016020908152604080832093909416825291909152205490565b6101c861029c366004610b4c565b610542565b6101c86102af366004610b65565b6105a0565b6101c86102c2366004610b4c565b61065b565b6060600380546102d690610bad565b80601f016020809104026020016040519081016040528092919081815260200182805461030290610bad565b801561034d5780601f106103245761010080835404028352916020019161034d565b820191905f5260205f20905b81548152906001019060200180831161033057829003601f168201915b5050505050905090565b5f33610364818585610695565b60019150505b92915050565b6001600160a01b0383165f9081526007602052604081205460ff16806103ad57506001600160a01b0383165f9081526007602052604090205460ff165b6103d25760405162461bcd60e51b81526004016103c990610be5565b60405180910390fd5b6103dd8484846106a7565b949350505050565b6103ed6106ca565b600654816103fa60025490565b6104049190610c2b565b11156104475760405162461bcd60e51b815260206004820152601260248201527145786365656473206d617820737570706c7960701b60448201526064016103c9565b61045182826106f7565b5050565b61045f338261072b565b50565b61046a6106ca565b6104735f61075f565b565b61047d6106ca565b6001600160a01b0381165f818152600760209081526040808320805460ff19169055519182527ff93f9a76c1bf3444d22400a00cb9fe990e6abe9dbb333fda48859cfee864543d91015b60405180910390a250565b6060600480546102d690610bad565b335f9081526007602052604081205460ff168061051557506001600160a01b0383165f9081526007602052604090205460ff165b6105315760405162461bcd60e51b81526004016103c990610be5565b61053b83836107b0565b9392505050565b61054a6106ca565b6001600160a01b0381165f81815260076020908152604091829020805460ff1916600190811790915591519182527ff93f9a76c1bf3444d22400a00cb9fe990e6abe9dbb333fda48859cfee864543d91016104c7565b6105a86106ca565b6002548110156106205760405162461bcd60e51b815260206004820152603c60248201527f4e6577206d617820737570706c79206d7573742062652067726561746572207460448201527f68616e206f7220657175616c20746f20746f74616c20737570706c790000000060648201526084016103c9565b60068190556040518181527f28a10a2e0b5582da7164754cb994f6214b8af6aa7f7e003305fbc09e7106c5139060200160405180910390a150565b6106636106ca565b6001600160a01b03811661068c57604051631e4fbdf760e01b81525f60048201526024016103c9565b61045f8161075f565b6106a283838360016107bd565b505050565b5f336106b4858285610890565b6106bf858585610905565b506001949350505050565b6005546001600160a01b031633146104735760405163118cdaa760e01b81523360048201526024016103c9565b6001600160a01b0382166107205760405163ec442f0560e01b81525f60048201526024016103c9565b6104515f838361095e565b6001600160a01b03821661075457604051634b637e8f60e11b81525f60048201526024016103c9565b610451825f8361095e565b600580546001600160a01b038381166001600160a01b0319831681179093556040519116919082907f8be0079c531659141344cd1fd0a4f28419497f9722a3daafe3b4186f6b6457e0905f90a35050565b5f33610364818585610905565b6001600160a01b0384166107e65760405163e602df0560e01b81525f60048201526024016103c9565b6001600160a01b03831661080f57604051634a1406b160e11b81525f60048201526024016103c9565b6001600160a01b038085165f908152600160209081526040808320938716835292905220829055801561088a57826001600160a01b0316846001600160a01b03167f8c5be1e5ebec7d5bd14f71427d1e84f3dd0314c0f7b2291e5b200ac8c7c3b9258460405161088191815260200190565b60405180910390a35b50505050565b6001600160a01b038381165f908152600160209081526040808320938616835292905220545f19811461088a57818110156108f757604051637dc7a0d960e11b81526001600160a01b038416600482015260248101829052604481018390526064016103c9565b61088a84848484035f6107bd565b6001600160a01b03831661092e57604051634b637e8f60e11b81525f60048201526024016103c9565b6001600160a01b0382166109575760405163ec442f0560e01b81525f60048201526024016103c9565b6106a28383835b6001600160a01b038316610988578060025f82825461097d9190610c2b565b909155506109f89050565b6001600160a01b0383165f90815260208190526040902054818110156109da5760405163391434e360e21b81526001600160a01b038516600482015260248101829052604481018390526064016103c9565b6001600160a01b0384165f9081526020819052604090209082900390555b6001600160a01b038216610a1457600280548290039055610a32565b6001600160a01b0382165f9081526020819052604090208054820190555b816001600160a01b0316836001600160a01b03167fddf252ad1be2c89b69c2b068fc378daa952ba7f163c4a11628f55a4df523b3ef83604051610a7791815260200190565b60405180910390a3505050565b5f602080835283518060208501525f5b81811015610ab057858101830151858201604001528201610a94565b505f604082860101526040601f19601f8301168501019250505092915050565b80356001600160a01b0381168114610ae6575f80fd5b919050565b5f8060408385031215610afc575f80fd5b610b0583610ad0565b946020939093013593505050565b5f805f60608486031215610b25575f80fd5b610b2e84610ad0565b9250610b3c60208501610ad0565b9150604084013590509250925092565b5f60208284031215610b5c575f80fd5b61053b82610ad0565b5f60208284031215610b75575f80fd5b5035919050565b5f8060408385031215610b8d575f80fd5b610b9683610ad0565b9150610ba460208401610ad0565b90509250929050565b600181811c90821680610bc157607f821691505b602082108103610bdf57634e487b7160e01b5f52602260045260245ffd5b50919050565b60208082526026908201527f53656e646572206f7220726563697069656e74206973206e6f742077686974656040820152651b1a5cdd195960d21b606082015260800190565b8082018082111561036a57634e487b7160e01b5f52601160045260245ffdfea264697066735822122038c09704336b563531203c28b33ae80bb4ebb9779d606ffb86655e8e0a45c92064736f6c63430008180033",
  "immutableReferences": {},
  "source": "// SPDX-License-Identifier: MIT\r\npragma solidity ^0.8.0;\r\n\r\nimport \"@openzeppelin/contracts/token/ERC20/ERC20.sol\";\r\nimport \"@openzeppelin/contracts/access/Ownable.sol\";\r\n\r\ncontract Solvine is ERC20, Ownable {\r\n    uint256 private _maxSupply;\r\n    mapping(address => bool) private _whitelist;\r\n\r\n    event MaxSupplyChanged(uint256 newMaxSupply);\r\n    event WhitelistUpdated(address indexed account, bool isWhitelisted);\r\n\r\n\r\n    constructor(uint256 initialSupply, uint256 maxSupply) ERC20(\"SOLVINE\", \"SLV\") Ownable(msg.sender){\r\n        _maxSupply = maxSupply;\r\n        _mint(msg.sender, initialSupply);\r\n    }\r\n\r\n    function mint(address to, uint256 amount) external onlyOwner {\r\n        require(totalSupply() + amount <= _maxSupply, \"Exceeds max supply\");\r\n        _mint(to, amount);\r\n    }\r\n\r\n    function burn(uint256 amount) external {\r\n        _burn(msg.sender, amount);\r\n    }\r\n\r\n    function updateMaxSupply(uint256 newMaxSupply) external onlyOwner {\r\n        require(newMaxSupply >= totalSupply(), \"New max supply must be greater than or equal to total supply\");\r\n        _maxSupply = newMaxSupply;\r\n        emit MaxSupplyChanged(newMaxSupply);\r\n    }\r\n\r\n    function addToWhitelist(address account) external onlyOwner {\r\n        _whitelist[account] = true;\r\n        emit WhitelistUpdated(account, true);\r\n    }\r\n\r\n    function removeFromWhitelist(address account) external onlyOwner {\r\n        _whitelist[account] = false;\r\n        emit WhitelistUpdated(account, false);\r\n    }\r\n\r\n    function isWhitelisted(address account) external view returns (bool) {\r\n        return _whitelist[account];\r\n    }\r\n\r\n    function transfer(address recipient, uint256 amount) public override returns (bool) {\r\n        require(_whitelist[msg.sender] || _whitelist[recipient], \"Sender or recipient is not whitelisted\");\r\n        return super.transfer(recipient, amount);\r\n    }\r\n\r\n    function transferFrom(address sender, address recipient, uint256 amount) public override returns (bool) {\r\n        require(_whitelist[sender] || _whitelist[recipient], \"Sender or recipient is not whitelisted\");\r\n        return super.transferFrom(sender, recipient, amount);\r\n    }\r\n}\r\n",
  "sourcePath": "E:\\Project\\Crypto Research\\Polygon Testnet\\contracts\\solvine.sol",
  "compiler": {
    "name": "solc",
    "version": "0.8.24+commit.e11b9ed9.Emscripten.clang"
  },
  "schemaVersion": "3.4.16",
  "updatedAt": "2024-03-04T04:44:59.588Z",
  "devdoc": {
    "errors": {
      "ERC20InsufficientAllowance(address,uint256,uint256)": [
        {
          "details": "Indicates a failure with the `spender`s `allowance`. Used in transfers.",
          "params": {
            "allowance": "Amount of tokens a `spender` is allowed to operate with.",
            "needed": "Minimum amount required to perform a transfer.",
            "spender": "Address that may be allowed to operate on tokens without being their owner."
          }
        }
      ],
      "ERC20InsufficientBalance(address,uint256,uint256)": [
        {
          "details": "Indicates an error related to the current `balance` of a `sender`. Used in transfers.",
          "params": {
            "balance": "Current balance for the interacting account.",
            "needed": "Minimum amount required to perform a transfer.",
            "sender": "Address whose tokens are being transferred."
          }
        }
      ],
      "ERC20InvalidApprover(address)": [
        {
          "details": "Indicates a failure with the `approver` of a token to be approved. Used in approvals.",
          "params": {
            "approver": "Address initiating an approval operation."
          }
        }
      ],
      "ERC20InvalidReceiver(address)": [
        {
          "details": "Indicates a failure with the token `receiver`. Used in transfers.",
          "params": {
            "receiver": "Address to which tokens are being transferred."
          }
        }
      ],
      "ERC20InvalidSender(address)": [
        {
          "details": "Indicates a failure with the token `sender`. Used in transfers.",
          "params": {
            "sender": "Address whose tokens are being transferred."
          }
        }
      ],
      "ERC20InvalidSpender(address)": [
        {
          "details": "Indicates a failure with the `spender` to be approved. Used in approvals.",
          "params": {
            "spender": "Address that may be allowed to operate on tokens without being their owner."
          }
        }
      ],
      "OwnableInvalidOwner(address)": [
        {
          "details": "The owner is not a valid owner account. (eg. `address(0)`)"
        }
      ],
      "OwnableUnauthorizedAccount(address)": [
        {
          "details": "The caller account is not authorized to perform an operation."
        }
      ]
    },
    "events": {
      "Approval(address,address,uint256)": {
        "details": "Emitted when the allowance of a `spender` for an `owner` is set by a call to {approve}. `value` is the new allowance."
      },
      "Transfer(address,address,uint256)": {
        "details": "Emitted when `value` tokens are moved from one account (`from`) to another (`to`). Note that `value` may be zero."
      }
    },
    "kind": "dev",
    "methods": {
      "allowance(address,address)": {
        "details": "See {IERC20-allowance}."
      },
      "approve(address,uint256)": {
        "details": "See {IERC20-approve}. NOTE: If `value` is the maximum `uint256`, the allowance is not updated on `transferFrom`. This is semantically equivalent to an infinite approval. Requirements: - `spender` cannot be the zero address."
      },
      "balanceOf(address)": {
        "details": "See {IERC20-balanceOf}."
      },
      "decimals()": {
        "details": "Returns the number of decimals used to get its user representation. For example, if `decimals` equals `2`, a balance of `505` tokens should be displayed to a user as `5.05` (`505 / 10 ** 2`). Tokens usually opt for a value of 18, imitating the relationship between Ether and Wei. This is the default value returned by this function, unless it's overridden. NOTE: This information is only used for _display_ purposes: it in no way affects any of the arithmetic of the contract, including {IERC20-balanceOf} and {IERC20-transfer}."
      },
      "name()": {
        "details": "Returns the name of the token."
      },
      "owner()": {
        "details": "Returns the address of the current owner."
      },
      "renounceOwnership()": {
        "details": "Leaves the contract without owner. It will not be possible to call `onlyOwner` functions. Can only be called by the current owner. NOTE: Renouncing ownership will leave the contract without an owner, thereby disabling any functionality that is only available to the owner."
      },
      "symbol()": {
        "details": "Returns the symbol of the token, usually a shorter version of the name."
      },
      "totalSupply()": {
        "details": "See {IERC20-totalSupply}."
      },
      "transferOwnership(address)": {
        "details": "Transfers ownership of the contract to a new account (`newOwner`). Can only be called by the current owner."
      }
    },
    "version": 1
  },
  "userdoc": {
    "kind": "user",
    "methods": {},
    "version": 1
  }
}